{
  "address": "0x3067A9Cb3E324B6cc161ef24bc870516DD167eAE",
  "abi": [
    {
      "inputs": [
        {
          "internalType": "address",
          "name": "_tokenAddress",
          "type": "address"
        }
      ],
      "stateMutability": "nonpayable",
      "type": "constructor"
    },
    {
      "anonymous": false,
      "inputs": [
        {
          "indexed": false,
          "internalType": "address",
          "name": "user",
          "type": "address"
        },
        {
          "indexed": false,
          "internalType": "uint256",
          "name": "amount",
          "type": "uint256"
        }
      ],
      "name": "Fauceted",
      "type": "event"
    },
    {
      "anonymous": false,
      "inputs": [
        {
          "indexed": true,
          "internalType": "bytes32",
          "name": "role",
          "type": "bytes32"
        },
        {
          "indexed": true,
          "internalType": "bytes32",
          "name": "previousAdminRole",
          "type": "bytes32"
        },
        {
          "indexed": true,
          "internalType": "bytes32",
          "name": "newAdminRole",
          "type": "bytes32"
        }
      ],
      "name": "RoleAdminChanged",
      "type": "event"
    },
    {
      "anonymous": false,
      "inputs": [
        {
          "indexed": true,
          "internalType": "bytes32",
          "name": "role",
          "type": "bytes32"
        },
        {
          "indexed": true,
          "internalType": "address",
          "name": "account",
          "type": "address"
        },
        {
          "indexed": true,
          "internalType": "address",
          "name": "sender",
          "type": "address"
        }
      ],
      "name": "RoleGranted",
      "type": "event"
    },
    {
      "anonymous": false,
      "inputs": [
        {
          "indexed": true,
          "internalType": "bytes32",
          "name": "role",
          "type": "bytes32"
        },
        {
          "indexed": true,
          "internalType": "address",
          "name": "account",
          "type": "address"
        },
        {
          "indexed": true,
          "internalType": "address",
          "name": "sender",
          "type": "address"
        }
      ],
      "name": "RoleRevoked",
      "type": "event"
    },
    {
      "anonymous": false,
      "inputs": [
        {
          "indexed": false,
          "internalType": "address",
          "name": "user",
          "type": "address"
        },
        {
          "indexed": false,
          "internalType": "address",
          "name": "byUser",
          "type": "address"
        }
      ],
      "name": "Slashed",
      "type": "event"
    },
    {
      "anonymous": false,
      "inputs": [
        {
          "indexed": false,
          "internalType": "address",
          "name": "user",
          "type": "address"
        }
      ],
      "name": "Staked",
      "type": "event"
    },
    {
      "anonymous": false,
      "inputs": [
        {
          "indexed": false,
          "internalType": "address",
          "name": "user",
          "type": "address"
        }
      ],
      "name": "Unstaked",
      "type": "event"
    },
    {
      "anonymous": false,
      "inputs": [
        {
          "indexed": false,
          "internalType": "address",
          "name": "user",
          "type": "address"
        }
      ],
      "name": "Zapped",
      "type": "event"
    },
    {
      "inputs": [],
      "name": "DEFAULT_ADMIN_ROLE",
      "outputs": [
        {
          "internalType": "bytes32",
          "name": "",
          "type": "bytes32"
        }
      ],
      "stateMutability": "view",
      "type": "function"
    },
    {
      "inputs": [],
      "name": "MANAGER_ROLE",
      "outputs": [
        {
          "internalType": "bytes32",
          "name": "",
          "type": "bytes32"
        }
      ],
      "stateMutability": "view",
      "type": "function"
    },
    {
      "inputs": [],
      "name": "amountToStake",
      "outputs": [
        {
          "internalType": "uint256",
          "name": "",
          "type": "uint256"
        }
      ],
      "stateMutability": "view",
      "type": "function"
    },
    {
      "inputs": [],
      "name": "faucet",
      "outputs": [],
      "stateMutability": "nonpayable",
      "type": "function"
    },
    {
      "inputs": [
        {
          "internalType": "bytes32",
          "name": "role",
          "type": "bytes32"
        }
      ],
      "name": "getRoleAdmin",
      "outputs": [
        {
          "internalType": "bytes32",
          "name": "",
          "type": "bytes32"
        }
      ],
      "stateMutability": "view",
      "type": "function"
    },
    {
      "inputs": [
        {
          "internalType": "bytes32",
          "name": "role",
          "type": "bytes32"
        },
        {
          "internalType": "address",
          "name": "account",
          "type": "address"
        }
      ],
      "name": "grantRole",
      "outputs": [],
      "stateMutability": "nonpayable",
      "type": "function"
    },
    {
      "inputs": [
        {
          "internalType": "bytes32",
          "name": "role",
          "type": "bytes32"
        },
        {
          "internalType": "address",
          "name": "account",
          "type": "address"
        }
      ],
      "name": "hasRole",
      "outputs": [
        {
          "internalType": "bool",
          "name": "",
          "type": "bool"
        }
      ],
      "stateMutability": "view",
      "type": "function"
    },
    {
      "inputs": [
        {
          "internalType": "address",
          "name": "userAddress",
          "type": "address"
        }
      ],
      "name": "isInspector",
      "outputs": [
        {
          "internalType": "bool",
          "name": "_staked",
          "type": "bool"
        }
      ],
      "stateMutability": "view",
      "type": "function"
    },
    {
      "inputs": [
        {
          "internalType": "address",
          "name": "userAddress",
          "type": "address"
        }
      ],
      "name": "isStaked",
      "outputs": [
        {
          "internalType": "bool",
          "name": "_staked",
          "type": "bool"
        }
      ],
      "stateMutability": "view",
      "type": "function"
    },
    {
      "inputs": [
        {
          "internalType": "bytes32",
          "name": "role",
          "type": "bytes32"
        },
        {
          "internalType": "address",
          "name": "account",
          "type": "address"
        }
      ],
      "name": "renounceRole",
      "outputs": [],
      "stateMutability": "nonpayable",
      "type": "function"
    },
    {
      "inputs": [
        {
          "internalType": "bytes32",
          "name": "role",
          "type": "bytes32"
        },
        {
          "internalType": "address",
          "name": "account",
          "type": "address"
        }
      ],
      "name": "revokeRole",
      "outputs": [],
      "stateMutability": "nonpayable",
      "type": "function"
    },
    {
      "inputs": [
        {
          "internalType": "address",
          "name": "userAddress",
          "type": "address"
        }
      ],
      "name": "slash",
      "outputs": [],
      "stateMutability": "nonpayable",
      "type": "function"
    },
    {
      "inputs": [],
      "name": "stake",
      "outputs": [],
      "stateMutability": "nonpayable",
      "type": "function"
    },
    {
      "inputs": [
        {
          "internalType": "bytes4",
          "name": "interfaceId",
          "type": "bytes4"
        }
      ],
      "name": "supportsInterface",
      "outputs": [
        {
          "internalType": "bool",
          "name": "",
          "type": "bool"
        }
      ],
      "stateMutability": "view",
      "type": "function"
    },
    {
      "inputs": [],
      "name": "tokenAddress",
      "outputs": [
        {
          "internalType": "address",
          "name": "",
          "type": "address"
        }
      ],
      "stateMutability": "view",
      "type": "function"
    },
    {
      "inputs": [],
      "name": "unstake",
      "outputs": [],
      "stateMutability": "nonpayable",
      "type": "function"
    },
    {
      "inputs": [
        {
          "internalType": "address",
          "name": "",
          "type": "address"
        }
      ],
      "name": "userStakedAmount",
      "outputs": [
        {
          "internalType": "uint256",
          "name": "",
          "type": "uint256"
        }
      ],
      "stateMutability": "view",
      "type": "function"
    },
    {
      "inputs": [],
      "name": "zap",
      "outputs": [],
      "stateMutability": "nonpayable",
      "type": "function"
    }
  ],
  "transactionHash": "0x5cef1795331bf2d0ebdf60837ed741a66fdf98cee35c34bcdedfc2245a03dd22",
  "args": [
    "0xeF6ddE8B6AcB3876740F8A163620183Cf7cb539f"
  ],
  "numDeployments": 1,
  "solcInputHash": "33ba10f06cc03f081206f983e1ff36db",
  "bytecode": "0x60806040526802b5e3af16b188000060035534801561001d57600080fd5b5060405161108a38038061108a83398101604081905261003c91610120565b60016000908155600280546001600160a01b0319166001600160a01b0384161790556100689033610098565b6100927f241ecf16d79d0f8dbfb92cbc07fe17840425976cf0667f022fe9877caa831b0833610098565b50610150565b60008281526001602090815260408083206001600160a01b038516845290915290205460ff1661011c5760008281526001602081815260408084206001600160a01b0386168086529252808420805460ff19169093179092559051339285917f2f8788117e7eff1d82e926ec794901d17c78024a50270940304540a733656f0d9190a45b5050565b60006020828403121561013257600080fd5b81516001600160a01b038116811461014957600080fd5b9392505050565b610f2b8061015f6000396000f3fe608060405234801561001057600080fd5b50600436106101165760003560e01c80636177fd18116100a2578063a217fddf11610071578063a217fddf1461025f578063c96be4cb14610267578063d547741f1461027a578063de5f72fd1461028d578063ec87621c1461029557600080fd5b80636177fd18146101d15780638e4647ee1461020157806391d14854146102215780639d76ea581461023457600080fd5b80632def6620116100e95780632def6620146101925780632f2ff15d1461019a57806336568abe146101ad5780633a4b66f1146101c05780633c58ba86146101c857600080fd5b806301ffc9a71461011b578063248a9ca314610143578063262d6152146101755780632cdad41c1461017f575b600080fd5b61012e610129366004610c95565b6102bc565b60405190151581526020015b60405180910390f35b610167610151366004610cbf565b6000908152600160208190526040909120015490565b60405190815260200161013a565b61017d6102f3565b005b61012e61018d366004610cf4565b6103cb565b61017d6103f0565b61017d6101a8366004610d0f565b61052f565b61017d6101bb366004610d0f565b61055a565b61017d6105d8565b61016760035481565b61012e6101df366004610cf4565b6003546001600160a01b03909116600090815260046020526040902054101590565b61016761020f366004610cf4565b60046020526000908152604090205481565b61012e61022f366004610d0f565b6107d1565b600254610247906001600160a01b031681565b6040516001600160a01b03909116815260200161013a565b610167600081565b61017d610275366004610cf4565b6107fc565b61017d610288366004610d0f565b61087e565b61017d6108a4565b6101677f241ecf16d79d0f8dbfb92cbc07fe17840425976cf0667f022fe9877caa831b0881565b60006001600160e01b03198216637965db0b60e01b14806102ed57506301ffc9a760e01b6001600160e01b03198316145b92915050565b6102fb61094f565b6002546003546040516340c10f1960e01b815230600482015260248101919091526001600160a01b03909116906340c10f1990604401600060405180830381600087803b15801561034b57600080fd5b505af115801561035f573d6000803e3d6000fd5b50506003543360009081526004602052604081208054929450925090610386908490610d51565b90915550506040513381527f959196e1d6a5464986e1ec35574d2179da025c5bc1570f02dde7b98d47ac8475906020015b60405180910390a16103c96001600055565b565b6003546001600160a01b038216600090815260046020526040812054909111156102ed565b6103f861094f565b60035433600090815260046020526040902054101561045e5760405162461bcd60e51b815260206004820152601d60248201527f796f7520646f6e27742068617665206d696e696d756d207374616b656400000060448201526064015b60405180910390fd5b60025460035460405163a9059cbb60e01b815233600482015260248101919091526001600160a01b039091169063a9059cbb906044016020604051808303816000875af11580156104b3573d6000803e3d6000fd5b505050506040513d601f19601f820116820180604052508101906104d79190610d69565b5060035433600090815260046020526040812080549091906104fa908490610d8b565b90915550506040513381527f908e667f6c2b13b8062954eb100253ea804c21222b190449e40d967a3ac0ff13906020016103b7565b6000828152600160208190526040909120015461054b816109a8565b61055583836109b5565b505050565b6001600160a01b03811633146105ca5760405162461bcd60e51b815260206004820152602f60248201527f416363657373436f6e74726f6c3a2063616e206f6e6c792072656e6f756e636560448201526e103937b632b9903337b91039b2b63360891b6064820152608401610455565b6105d48282610a20565b5050565b6105e061094f565b6003546002546040516370a0823160e01b81523360048201526001600160a01b03909116906370a0823190602401602060405180830381865afa15801561062b573d6000803e3d6000fd5b505050506040513d601f19601f8201168201806040525081019061064f9190610da2565b101561069d5760405162461bcd60e51b815260206004820152601960248201527f6e6f7420656e6f75676820746f6b656e20746f207374616b65000000000000006044820152606401610455565b33600090815260046020526040902054156106fa5760405162461bcd60e51b815260206004820152601760248201527f796f75206861766520616c7265616479207374616b65640000000000000000006044820152606401610455565b6002546003546040516323b872dd60e01b815233600482015230602482015260448101919091526001600160a01b03909116906323b872dd906064016020604051808303816000875af1158015610755573d6000803e3d6000fd5b505050506040513d601f19601f820116820180604052508101906107799190610d69565b50600354336000908152600460205260408120805490919061079c908490610d51565b90915550506040513381527f77338642d9284a44296d29a273e04b8ab6b15c7d2439094cd460b7e4f0b33074906020016103b7565b60009182526001602090815260408084206001600160a01b0393909316845291905290205460ff1690565b7f241ecf16d79d0f8dbfb92cbc07fe17840425976cf0667f022fe9877caa831b08610826816109a8565b6001600160a01b038216600081815260046020908152604080832092909255815192835233908301527ffd4a68324450a7ad187510820dce9e139c7d75a8e84d90d4977e2730638e64d5910160405180910390a15050565b6000828152600160208190526040909120015461089a816109a8565b6105558383610a20565b6108ac61094f565b6002546003546040516340c10f1960e01b815233600482015260248101919091526001600160a01b03909116906340c10f1990604401600060405180830381600087803b1580156108fc57600080fd5b505af1158015610910573d6000803e3d6000fd5b50506003546040805133815260208101929092527f0836e73c533bfdd3960a803e4cdf1b2903fba10cc4958a002fa837e4b02cc3c193500190506103b7565b6002600054036109a15760405162461bcd60e51b815260206004820152601f60248201527f5265656e7472616e637947756172643a207265656e7472616e742063616c6c006044820152606401610455565b6002600055565b6109b28133610a87565b50565b6109bf82826107d1565b6105d45760008281526001602081815260408084206001600160a01b0386168086529252808420805460ff19169093179092559051339285917f2f8788117e7eff1d82e926ec794901d17c78024a50270940304540a733656f0d9190a45050565b610a2a82826107d1565b156105d45760008281526001602090815260408083206001600160a01b0385168085529252808320805460ff1916905551339285917ff6391f5c32d9c69d2a47ea670b442974b53935d1edc7fd64eb21e047a839171b9190a45050565b610a9182826107d1565b6105d457610a9e81610ae0565b610aa9836020610af2565b604051602001610aba929190610deb565b60408051601f198184030181529082905262461bcd60e51b825261045591600401610e60565b60606102ed6001600160a01b03831660145b60606000610b01836002610e93565b610b0c906002610d51565b67ffffffffffffffff811115610b2457610b24610eb2565b6040519080825280601f01601f191660200182016040528015610b4e576020820181803683370190505b509050600360fc1b81600081518110610b6957610b69610ec8565b60200101906001600160f81b031916908160001a905350600f60fb1b81600181518110610b9857610b98610ec8565b60200101906001600160f81b031916908160001a9053506000610bbc846002610e93565b610bc7906001610d51565b90505b6001811115610c3f576f181899199a1a9b1b9c1cb0b131b232b360811b85600f1660108110610bfb57610bfb610ec8565b1a60f81b828281518110610c1157610c11610ec8565b60200101906001600160f81b031916908160001a90535060049490941c93610c3881610ede565b9050610bca565b508315610c8e5760405162461bcd60e51b815260206004820181905260248201527f537472696e67733a20686578206c656e67746820696e73756666696369656e746044820152606401610455565b9392505050565b600060208284031215610ca757600080fd5b81356001600160e01b031981168114610c8e57600080fd5b600060208284031215610cd157600080fd5b5035919050565b80356001600160a01b0381168114610cef57600080fd5b919050565b600060208284031215610d0657600080fd5b610c8e82610cd8565b60008060408385031215610d2257600080fd5b82359150610d3260208401610cd8565b90509250929050565b634e487b7160e01b600052601160045260246000fd5b60008219821115610d6457610d64610d3b565b500190565b600060208284031215610d7b57600080fd5b81518015158114610c8e57600080fd5b600082821015610d9d57610d9d610d3b565b500390565b600060208284031215610db457600080fd5b5051919050565b60005b83811015610dd6578181015183820152602001610dbe565b83811115610de5576000848401525b50505050565b7f416363657373436f6e74726f6c3a206163636f756e7420000000000000000000815260008351610e23816017850160208801610dbb565b7001034b99036b4b9b9b4b733903937b6329607d1b6017918401918201528351610e54816028840160208801610dbb565b01602801949350505050565b6020815260008251806020840152610e7f816040850160208701610dbb565b601f01601f19169190910160400192915050565b6000816000190483118215151615610ead57610ead610d3b565b500290565b634e487b7160e01b600052604160045260246000fd5b634e487b7160e01b600052603260045260246000fd5b600081610eed57610eed610d3b565b50600019019056fea2646970667358221220cac42278aa3f4eb0457b762b9bd343a2182838d2a213c5c887dcaa0f747c291764736f6c634300080e0033",
  "devdoc": {
    "kind": "dev",
    "methods": {
      "getRoleAdmin(bytes32)": {
        "details": "Returns the admin role that controls `role`. See {grantRole} and {revokeRole}. To change a role's admin, use {_setRoleAdmin}."
      },
      "grantRole(bytes32,address)": {
        "details": "Grants `role` to `account`. If `account` had not been already granted `role`, emits a {RoleGranted} event. Requirements: - the caller must have ``role``'s admin role. May emit a {RoleGranted} event."
      },
      "hasRole(bytes32,address)": {
        "details": "Returns `true` if `account` has been granted `role`."
      },
      "renounceRole(bytes32,address)": {
        "details": "Revokes `role` from the calling account. Roles are often managed via {grantRole} and {revokeRole}: this function's purpose is to provide a mechanism for accounts to lose their privileges if they are compromised (such as when a trusted device is misplaced). If the calling account had been revoked `role`, emits a {RoleRevoked} event. Requirements: - the caller must be `account`. May emit a {RoleRevoked} event."
      },
      "revokeRole(bytes32,address)": {
        "details": "Revokes `role` from `account`. If `account` had been granted `role`, emits a {RoleRevoked} event. Requirements: - the caller must have ``role``'s admin role. May emit a {RoleRevoked} event."
      },
      "slash(address)": {
        "details": "this function is for manager to take/forfeit user staked token"
      },
      "supportsInterface(bytes4)": {
        "details": "See {IERC165-supportsInterface}."
      },
      "zap()": {
        "details": ": faucet and stake in one transaction"
      }
    },
    "version": 1
  },
  "userdoc": {
    "kind": "user",
    "methods": {},
    "version": 1
  },
  "storageLayout": {
    "storage": [
      {
        "astId": 399,
        "contract": "contracts/core/SocialBureauCoreV1.sol:SocialBureauCoreV1",
        "label": "_status",
        "offset": 0,
        "slot": "0",
        "type": "t_uint256"
      },
      {
        "astId": 24,
        "contract": "contracts/core/SocialBureauCoreV1.sol:SocialBureauCoreV1",
        "label": "_roles",
        "offset": 0,
        "slot": "1",
        "type": "t_mapping(t_bytes32,t_struct(RoleData)19_storage)"
      },
      {
        "astId": 2242,
        "contract": "contracts/core/SocialBureauCoreV1.sol:SocialBureauCoreV1",
        "label": "tokenAddress",
        "offset": 0,
        "slot": "2",
        "type": "t_address"
      },
      {
        "astId": 2245,
        "contract": "contracts/core/SocialBureauCoreV1.sol:SocialBureauCoreV1",
        "label": "amountToStake",
        "offset": 0,
        "slot": "3",
        "type": "t_uint256"
      },
      {
        "astId": 2254,
        "contract": "contracts/core/SocialBureauCoreV1.sol:SocialBureauCoreV1",
        "label": "userStakedAmount",
        "offset": 0,
        "slot": "4",
        "type": "t_mapping(t_address,t_uint256)"
      }
    ],
    "types": {
      "t_address": {
        "encoding": "inplace",
        "label": "address",
        "numberOfBytes": "20"
      },
      "t_bool": {
        "encoding": "inplace",
        "label": "bool",
        "numberOfBytes": "1"
      },
      "t_bytes32": {
        "encoding": "inplace",
        "label": "bytes32",
        "numberOfBytes": "32"
      },
      "t_mapping(t_address,t_bool)": {
        "encoding": "mapping",
        "key": "t_address",
        "label": "mapping(address => bool)",
        "numberOfBytes": "32",
        "value": "t_bool"
      },
      "t_mapping(t_address,t_uint256)": {
        "encoding": "mapping",
        "key": "t_address",
        "label": "mapping(address => uint256)",
        "numberOfBytes": "32",
        "value": "t_uint256"
      },
      "t_mapping(t_bytes32,t_struct(RoleData)19_storage)": {
        "encoding": "mapping",
        "key": "t_bytes32",
        "label": "mapping(bytes32 => struct AccessControl.RoleData)",
        "numberOfBytes": "32",
        "value": "t_struct(RoleData)19_storage"
      },
      "t_struct(RoleData)19_storage": {
        "encoding": "inplace",
        "label": "struct AccessControl.RoleData",
        "members": [
          {
            "astId": 16,
            "contract": "contracts/core/SocialBureauCoreV1.sol:SocialBureauCoreV1",
            "label": "members",
            "offset": 0,
            "slot": "0",
            "type": "t_mapping(t_address,t_bool)"
          },
          {
            "astId": 18,
            "contract": "contracts/core/SocialBureauCoreV1.sol:SocialBureauCoreV1",
            "label": "adminRole",
            "offset": 0,
            "slot": "1",
            "type": "t_bytes32"
          }
        ],
        "numberOfBytes": "64"
      },
      "t_uint256": {
        "encoding": "inplace",
        "label": "uint256",
        "numberOfBytes": "32"
      }
    }
  }
}